:100000000A128A11FC2F00308A000408840A820731
:1000100000345334503449345F34523465346334DB
:0E002000653469347634653464343A3400341F
:100DF800831203138C1D012F022FFC2E8C11130854
:100E080008008316031394012430831203139400FB
:100E18008316031387150716871285160800F20034
:100E28008312031307147208880087142130F10015
:100E38007630F000F00B1E2FF10B1E2F0000FD3056
:100E4800F00070088312031387050800F200FE30D3
:100E5800F00070088312031387057208880087144E
:100E68002130F1007630F000F00B382FF10B382FDD
:100E78000000FD30F0007008831203138705080096
:100E8800F400562F740884000A128A1103200A12EB
:100E98008A110A128A1113270A128A110130F300E3
:100EA8007308F407740884000A128A1103200A12CE
:100EB8008A11003A031D612F622F462F0800FC306B
:100EC800F300730883160313870588018230F40042
:100ED800DD30F300F30B6E2FF40B6E2F732F3830C9
:100EE8000A128A112A270A128A110C300A128A1148
:100EF8002A270A128A1106300A128A112A270A1288
:100F08008A1101300A128A112A270A128A11080046
:100F1800F3000A128A11FC260A128A11F2003A30EA
:100F28007206031D982F992FBA2FF401F501AD2FE2
:100F380074087307F100710884000A128A11FC26EC
:100F48000A128A1180000130F4070318F50A0030EC
:100F5800F5077508803AF10080307102031DB62F3D
:100F680070087402031CB92FBA2F9C2F08000A12AC
:100F78008A1105270A128A110A128A1163270A128E
:100F88008A1180300A128A112A270A128A1101301E
:100F98000A128A1144270A128A110530F0007630A5
:100FA8000A128A118C270A128A11FA01C0300A1211
:100FB8008A112A270A128A1176080A128A11132717
:100FC8000A128A1177080A128A1113270A128A113B
:100FD80078080A128A1113270A128A1179080A1244
:100FE8008A1113270A128A11D12F0A128A1100288E
:080FF80083010A128A11BB2FCC
:08400000FF3FFF3FFF3FFF3FC0
:02400E003A3F37
:00000001FF
